:100000000C9434000C9449000C9449000C94490061
:100010000C9449000C9449000C9449000C9449003C
:100020000C9449000C9449000C9449000C9449002C
:100030000C9449000C9449000C9449000C9449001C
:100040000C9449000C9449000C9449000C9449000C
:100050000C9449000C9449000C9449000C944900FC
:100060000C9449000C94490011241FBECFEFD8E036
:10007000DEBFCDBF11E0A0E0B1E0E2E1FAE002C0F6
:1000800005900D92A83CB107D9F70E94C9000C94C5
:1000900007050C940000FC019191992339F080919F
:1000A000C00085FFFCCF9093C600F6CF08952BB11A
:1000B0002F702BB92BB1382F3295307F232B2BB9D2
:1000C00025B1207C25B925B134E0969587953A95E0
:1000D000E1F7822B85B90895CF93C62F0E94570070
:1000E00087B18F6087B988B1807F88B988B16C2F5C
:1000F0006F70682B68B95A985B9885E08A95F1F71C
:1001000000005B9A5A9A87B1807F87B9CF91089592
:100110000E9457005A9885E08A95F1F7000086B151
:100120005A9A8F700895CF93DF93CDB7DEB7C0583A
:10013000D1090FB6F894DEBF0FBECDBF182F092F1F
:10014000F62EE42ED22EC32E86E091E00E944B00C4
:10015000CF92DF921F92EF921F92FF920F931F9305
:100160008EE091E09F938F931F9280E88F938E0192
:100170000F5F1F4F1F930F930E940F02C8010E9431
:100180004B004498459A0FB6F894DEBF0FBECDBF22
:10019000FFCFCF93DF9300D000D000D0CDB7DEB734
:1001A0008091000190910101A09102018C839D83B7
:1001B000AE838091030190910401A0910501898390
:1001C0009A83AB831092C50087E68093C400109297
:1001D000C10088E18093C10086E08093C2008AB1AB
:1001E0008C6F8AB984B18F6384B987B1806387B912
:1001F00085E391E00E944B00C12CD12C2D2D217064
:10020000D0FC03C0449A459A02C0449845988C2D6E
:1002100090E0E4E0F0E0EC0FFD1FE80FF91F108123
:10022000E1E0F0E0EC0FFD1FE80FF91F0081211164
:1002300018C082E591E00E944B00E12CF12C612F67
:10024000C7010E946C008FEFE81AF80AE11484E0FD
:10025000F806A9F78AE591E00E944B00E12CF12C09
:1002600011C08BE691E00E944B00EE24EA9433E04B
:10027000F32E612FC7010E946C0081E0E81AF1089B
:10028000C0F7E8CFC7010E948800181719F02FECBB
:1002900030E007C0C7010E948800181739F021ED2F
:1002A00030E0412F682FC7010E949300602FC701E3
:1002B0000E946C00602FC7010E946C008FEFE81A4B
:1002C000F80AE11484E0F806E9F683E791E00E9479
:1002D0004B00E12CF12CC7010E948800081719F08F
:1002E0002BED30E052C0C7010E948800081719F0BA
:1002F0002DED30E04AC0612FC7010E946C00612FD4
:10030000C7010E946C008FEFE81AF80AE11484E03C
:10031000F80609F784E891E00E944B00EE24EA9485
:1003200023E0F22EC7010E948800181719F027EE6B
:1003300030E0B7CFC7010E948800181719F029EEE6
:1003400030E0AFCF602FC7010E946C00602FC70163
:100350000E946C0081E0E81AF10820F785E991E03D
:100360000E944B00EE24EA9493E0F92EC7010E940C
:100370008800081719F023EF30E007C0C7010E947A
:100380008800081721F025EF30E0402F8BCF612F38
:10039000C7010E946C00612FC7010E946C0081E0C0
:1003A000E81AF10818F7D1FC1AC086EA91E00E9419
:1003B0004B00E12CF12CC7010E948800181719F09E
:1003C00020E031E06ECF8FEFE81AF80AE11484E004
:1003D000F80689F7D39484E0D81210CF15C08EEABE
:1003E00091E00E944B00EE24EA9483E0F82EC701CE
:1003F0000E948800181719F026E031E052CF81E002
:10040000E81AF108A0F7E6CFC39483E0C812F5CE4E
:1004100086EB91E00E944B00449A4598FFCFAEE0F6
:10042000B0E0E5E1F2E00C94DE040D891E898F89CD
:10043000988D26E02C831A83098397FF02C080E001
:1004400090E801979E838D83AE01455E5F4F698D75
:100450007A8DCE0101960E943F024D815E8157FD4B
:100460000AC02F813885421753070CF49A01F8010E
:10047000E20FF31F10822E96E4E00C94FA04ABE036
:10048000B0E0E5E4F2E00C94D0046C017B018A0159
:10049000FC0117821682838181FFCCC1CE010196B7
:1004A0003C01F6019381F70193FD859193FF8191C2
:1004B0007F01882309F4BAC1853239F493FD85910F
:1004C00093FF81917F01853229F4B60190E00E946B
:1004D0003604E7CF912C212C312CFFE1F315D8F015
:1004E0008B3279F038F4803279F08332A1F4232D05
:1004F00020611DC08D3261F0803369F4232D2160AD
:1005000016C0832D8260382EE32DE4603E2E2AC073
:10051000F32DF8601DC037FC2DC020ED280F2A30C8
:1005200040F08E32B9F436FC81C1232D2064322E86
:1005300019C036FE06C08AE0989E200D1124922E26
:1005400011C0EAE02E9E200D1124222EF32DF06220
:100550003F2E08C08C3621F4832D8068382E02C0CF
:10056000883641F4F70193FD859193FF81917F01D6
:100570008111B3CF982F9F7D9554933028F40C5F51
:100580001F4F9FE399830DC0833631F0833771F09D
:10059000833509F059C021C0F801808189830E5F3D
:1005A0001F4F88248394912C530113C02801F2E03B
:1005B0004F0E511CF801A080B18036FE03C0692D9A
:1005C00070E002C06FEF7FEFC5010E942B044C0169
:1005D0008201F32DFF773F2E16C0280122E0420E44
:1005E000511CF801A080B18036FE03C0692D70E077
:1005F00002C06FEF7FEFC5010E9420044C01F32D74
:10060000F0683F2E820133FC1BC0822D90E08816DB
:100610009906B0F4B60180E290E00E9436042A9474
:10062000F4CFF50137FC859137FE81915F01B6016A
:1006300090E00E94360421102A9421E0821A910849
:100640008114910471F7E8C0843611F0893641F5C0
:10065000F80137FE07C060817181828193810C5F50
:100660001F4F08C060817181072E000C880B990B09
:100670000E5F1F4FF32DFF763F2E97FF09C0909519
:100680008095709561957F4F8F4F9F4FF0683F2EFB
:100690002AE030E0A3010E947204882E861845C02B
:1006A000853731F4232D2F7EB22E2AE030E025C08D
:1006B000932D997FB92E8F36C1F018F4883579F0D3
:1006C000B5C0803719F0883721F0B0C0E92FE0615C
:1006D000BE2EB4FE0DC0FB2DF460BF2E09C034FE4B
:1006E0000AC0292F2660B22E06C028E030E005C0DF
:1006F00020E130E002C020E132E0F801B7FE07C09F
:1007000060817181828193810C5F1F4F06C060817F
:10071000718180E090E00E5F1F4FA3010E94720480
:10072000882E8618FB2DFF773F2E36FE0DC0232D19
:100730002E7FA22E891458F434FE0BC032FC09C05F
:10074000832D8E7EA82E05C0B82CA32C03C0B82CF8
:1007500001C0B92CA4FE0FC0FE01E80DF11D80817F
:10076000803321F49A2D997EA92E09C0A2FE06C0DD
:10077000B394B39404C08A2D867809F0B394A3FC93
:1007800011C0A0FE06C0B21488F4280C922C9B184D
:100790000EC0B21460F4B60180E290E00E9436040C
:1007A000B394F7CFB21418F42B1802C0982C212C54
:1007B000A4FE10C0B60180E390E00E943604A2FEC1
:1007C00017C0A1FC03C088E790E002C088E590E074
:1007D000B6010CC08A2D867859F0A1FE02C08BE2CA
:1007E00001C080E2A7FC8DE2B60190E00E943604D1
:1007F000891438F4B60180E390E00E9436049A949C
:10080000F7CF8A94F301E80DF11D8081B60190E0E5
:100810000E9436048110F5CF222009F442CEB601A1
:1008200080E290E00E9436042A94F6CFF601868199
:10083000978102C08FEF9FEF2B96E2E10C94EC04BE
:10084000FC010590615070400110D8F7809590959B
:100850008E0F9F1F0895FC016150704001900110A0
:10086000D8F7809590958E0F9F1F08950F931F9333
:10087000CF93DF93FB01238121FD03C08FEF9FEF17
:100880002CC022FF16C04681578124813581421732
:10089000530744F4A081B1819D012F5F3F4F318305
:1008A00020838C93268137812F5F3F4F37832683A8
:1008B00014C08B01EC01FB010084F185E02D09954A
:1008C000892BE1F6D80116968D919C911797019688
:1008D00017969C938E931697CE01DF91CF911F911F
:1008E0000F910895FA01AA27283051F1203181F1A2
:1008F000E8946F936E7F6E5F7F4F8F4F9F4FAF4F28
:10090000B1E03ED0B4E03CD0670F781F891F9A1F3A
:10091000A11D680F791F8A1F911DA11D6A0F711DEE
:10092000811D911DA11D20D009F468943F912AE0FA
:10093000269F11243019305D3193DEF6CF010895E2
:10094000462F4770405D4193B3E00FD0C9F7F6CF13
:10095000462F4F70405D4A3318F0495D31FD4052DB
:10096000419302D0A9F7EACFB4E0A6959795879571
:1009700077956795BA95C9F7009761057105089550
:100980009B01AC010A2E06945795479537952795FC
:10099000BA95C9F7620F731F841F951FA01D089594
:1009A0002F923F924F925F926F927F928F929F927F
:1009B000AF92BF92CF92DF92EF92FF920F931F936D
:1009C000CF93DF93CDB7DEB7CA1BDB0B0FB6F8941E
:1009D000DEBF0FBECDBF09942A88398848885F845E
:1009E0006E847D848C849B84AA84B984C884DF80CF
:1009F000EE80FD800C811B81AA81B981CE0FD11DB3
:100A00000FB6F894DEBF0FBECDBFED010895F89488
:020A1000FFCF16
:100A12000003050F0C0A4641494C210D0A00613DB5
:100A2200253033782C20763D2531782C206578705E
:100A320065637465643D2531782C206C696E653D73
:100A420025640D0A0032313134205352414D204D7C
:100A520041524348204D5353205445535445520D5F
:100A62000A005E287730290D0A005E2872302C7247
:100A7200302C77312C7731290D0A007628773029EE
:100A82000D0A005E2872312C72312C77302C7730AF
:100A9200290D0A00762872302C72302C77312C778F
:100AA20031290D0A00762872312C72312C77302CC4
:100AB2007730290D0A005E287230290D0A00762847
:100AC2007230290D0A0052414D2054455354454479
:080AD200204F4B210D0A00002A
:00000001FF
